{
  "contractName": "LPDeployer",
  "abi": [
    {
      "inputs": [],
      "name": "lpParameters",
      "outputs": [
        {
          "internalType": "address",
          "name": "factory",
          "type": "address"
        },
        {
          "internalType": "address",
          "name": "owner",
          "type": "address"
        },
        {
          "internalType": "address",
          "name": "token",
          "type": "address"
        },
        {
          "internalType": "uint256",
          "name": "rewardProportion",
          "type": "uint256"
        }
      ],
      "stateMutability": "view",
      "type": "function",
      "constant": true
    }
  ],
  "bytecode": "0x608060405234801561001057600080fd5b506101a4806100206000396000f3fe608060405234801561001057600080fd5b506004361061002b5760003560e01c8063c9f8350314610030575b600080fd5b610038610051565b6040516100489493929190610129565b60405180910390f35b60008060000160009054906101000a900473ffffffffffffffffffffffffffffffffffffffff16908060010160009054906101000a900473ffffffffffffffffffffffffffffffffffffffff16908060020160009054906101000a900473ffffffffffffffffffffffffffffffffffffffff16908060030154905084565b600073ffffffffffffffffffffffffffffffffffffffff82169050919050565b60006100fa826100cf565b9050919050565b61010a816100ef565b82525050565b6000819050919050565b61012381610110565b82525050565b600060808201905061013e6000830187610101565b61014b6020830186610101565b6101586040830185610101565b610165606083018461011a565b9594505050505056fea26469706673582212203e5f1155493cf4bb70897d4a8b1bf1563b58af1355765a014c3d33bba5f1aa1f64736f6c634300080d0033",
  "immutableReferences": {},
  "source": "// SPDX-License-Identifier: MIT\r\npragma solidity >=0.8.0;\r\n\r\nimport \"./interfaces/IlpDeployer.sol\";\r\nimport \"./LPFarm.sol\";\r\n\r\ncontract LPDeployer is IlpDeployer {\r\n    struct LpParameters {\r\n        address factory;\r\n        address owner;\r\n        address token;\r\n        uint256 rewardProportion;\r\n    }\r\n\r\n    LpParameters public override lpParameters;\r\n\r\n    function deployLPFarm(\r\n        address factory,\r\n        address owner,\r\n        address token,\r\n        uint256 rewardProportion\r\n    ) internal returns (address lpFarm) {\r\n        lpParameters = LpParameters({\r\n            factory: factory,\r\n            owner: owner,\r\n            token: token,\r\n            rewardProportion: rewardProportion\r\n        });\r\n        lpFarm = address(\r\n            new LPFarm{\r\n                salt: keccak256(\r\n                    abi.encode(factory, owner, token, rewardProportion)\r\n                )\r\n            }()\r\n        );\r\n        delete lpParameters;\r\n    }\r\n}\r\n",
  "sourcePath": "F:\\coding\\projects\\dapps\\lpfarming-truffle\\contracts\\LPDeployer.sol",
  "compiler": {
    "name": "solc",
    "version": "0.8.13+commit.abaa5c0e.Emscripten.clang"
  },
  "schemaVersion": "3.4.7",
  "updatedAt": "2022-06-14T14:51:12.213Z",
  "networkType": "ethereum",
  "devdoc": {
    "kind": "dev",
    "methods": {},
    "version": 1
  },
  "userdoc": {
    "kind": "user",
    "methods": {},
    "version": 1
  }
}