{
  "contractName": "LPFarm",
  "abi": [
    {
      "inputs": [],
      "stateMutability": "nonpayable",
      "type": "constructor"
    },
    {
      "anonymous": false,
      "inputs": [
        {
          "indexed": true,
          "internalType": "address",
          "name": "to",
          "type": "address"
        },
        {
          "indexed": false,
          "internalType": "uint256",
          "name": "amount",
          "type": "uint256"
        }
      ],
      "name": "ClaimRewards",
      "type": "event"
    },
    {
      "anonymous": false,
      "inputs": [
        {
          "indexed": true,
          "internalType": "address",
          "name": "",
          "type": "address"
        }
      ],
      "name": "Participated",
      "type": "event"
    },
    {
      "anonymous": false,
      "inputs": [
        {
          "indexed": true,
          "internalType": "address",
          "name": "to",
          "type": "address"
        },
        {
          "indexed": false,
          "internalType": "uint256",
          "name": "amount",
          "type": "uint256"
        },
        {
          "indexed": false,
          "internalType": "uint256",
          "name": "tokenReward",
          "type": "uint256"
        }
      ],
      "name": "Withdraw",
      "type": "event"
    },
    {
      "inputs": [
        {
          "internalType": "address",
          "name": "",
          "type": "address"
        }
      ],
      "name": "claimedRewards",
      "outputs": [
        {
          "internalType": "uint256",
          "name": "",
          "type": "uint256"
        }
      ],
      "stateMutability": "view",
      "type": "function"
    },
    {
      "inputs": [
        {
          "internalType": "address",
          "name": "",
          "type": "address"
        }
      ],
      "name": "deposits",
      "outputs": [
        {
          "internalType": "uint256",
          "name": "",
          "type": "uint256"
        }
      ],
      "stateMutability": "view",
      "type": "function"
    },
    {
      "inputs": [],
      "name": "factory",
      "outputs": [
        {
          "internalType": "address",
          "name": "",
          "type": "address"
        }
      ],
      "stateMutability": "view",
      "type": "function"
    },
    {
      "inputs": [
        {
          "internalType": "address",
          "name": "",
          "type": "address"
        }
      ],
      "name": "isParticipant",
      "outputs": [
        {
          "internalType": "bool",
          "name": "",
          "type": "bool"
        }
      ],
      "stateMutability": "view",
      "type": "function"
    },
    {
      "inputs": [],
      "name": "owner",
      "outputs": [
        {
          "internalType": "address",
          "name": "",
          "type": "address"
        }
      ],
      "stateMutability": "view",
      "type": "function"
    },
    {
      "inputs": [],
      "name": "rewardProportion",
      "outputs": [
        {
          "internalType": "uint256",
          "name": "",
          "type": "uint256"
        }
      ],
      "stateMutability": "view",
      "type": "function"
    },
    {
      "inputs": [
        {
          "internalType": "address",
          "name": "",
          "type": "address"
        }
      ],
      "name": "startBlockNumber",
      "outputs": [
        {
          "internalType": "uint256",
          "name": "",
          "type": "uint256"
        }
      ],
      "stateMutability": "view",
      "type": "function"
    },
    {
      "inputs": [],
      "name": "token",
      "outputs": [
        {
          "internalType": "address",
          "name": "",
          "type": "address"
        }
      ],
      "stateMutability": "view",
      "type": "function"
    },
    {
      "inputs": [],
      "name": "participate",
      "outputs": [],
      "stateMutability": "payable",
      "type": "function"
    },
    {
      "inputs": [],
      "name": "claimRewards",
      "outputs": [],
      "stateMutability": "nonpayable",
      "type": "function"
    },
    {
      "inputs": [],
      "name": "withdraw",
      "outputs": [],
      "stateMutability": "nonpayable",
      "type": "function"
    },
    {
      "inputs": [],
      "name": "checkpoint",
      "outputs": [
        {
          "internalType": "uint256",
          "name": "",
          "type": "uint256"
        }
      ],
      "stateMutability": "view",
      "type": "function"
    }
  ],
  "bytecode": "0x60c06040523480156200001157600080fd5b503373ffffffffffffffffffffffffffffffffffffffff1663c9f835036040518163ffffffff1660e01b8152600401608060405180830381865afa1580156200005e573d6000803e3d6000fd5b505050506040513d601f19601f82011682018060405250810190620000849190620001f2565b600160008060008460a0908152508573ffffffffffffffffffffffffffffffffffffffff1660809073ffffffffffffffffffffffffffffffffffffffff168152508691906101000a81548173ffffffffffffffffffffffffffffffffffffffff021916908373ffffffffffffffffffffffffffffffffffffffff1602179055508591906101000a81548173ffffffffffffffffffffffffffffffffffffffff021916908373ffffffffffffffffffffffffffffffffffffffff1602179055505050505062000264565b600080fd5b600073ffffffffffffffffffffffffffffffffffffffff82169050919050565b60006200017f8262000152565b9050919050565b620001918162000172565b81146200019d57600080fd5b50565b600081519050620001b18162000186565b92915050565b6000819050919050565b620001cc81620001b7565b8114620001d857600080fd5b50565b600081519050620001ec81620001c1565b92915050565b600080600080608085870312156200020f576200020e6200014d565b5b60006200021f87828801620001a0565b94505060206200023287828801620001a0565b93505060406200024587828801620001a0565b92505060606200025887828801620001db565b91505092959194509250565b60805160a05161104c6200029f600039600081816107310152818161086c0152610b4f015260008181610a390152610b7d015261104c6000f3fe6080604052600436106100a75760003560e01c8063c2b3f47511610064578063c2b3f475146101aa578063c2c4c5c1146101e7578063c45a015514610212578063d11711a21461023d578063fc0c546a14610247578063fc7e286d14610272576100a7565b8063372500ab146100ac5780633ccfd60b146100c35780638da5cb5b146100da578063929066f514610105578063b883795714610142578063bd8343451461016d575b600080fd5b3480156100b857600080fd5b506100c16102af565b005b3480156100cf57600080fd5b506100d8610430565b005b3480156100e657600080fd5b506100ef6106eb565b6040516100fc9190610c53565b60405180910390f35b34801561011157600080fd5b5061012c60048036038101906101279190610c9f565b61070f565b6040516101399190610ce7565b60405180910390f35b34801561014e57600080fd5b5061015761072f565b6040516101649190610d1b565b60405180910390f35b34801561017957600080fd5b50610194600480360381019061018f9190610c9f565b610753565b6040516101a19190610d1b565b60405180910390f35b3480156101b657600080fd5b506101d160048036038101906101cc9190610c9f565b61076b565b6040516101de9190610d1b565b60405180910390f35b3480156101f357600080fd5b506101fc610783565b6040516102099190610d1b565b60405180910390f35b34801561021e57600080fd5b506102276108a1565b6040516102349190610c53565b60405180910390f35b6102456108c7565b005b34801561025357600080fd5b5061025c610a37565b6040516102699190610c53565b60405180910390f35b34801561027e57600080fd5b5061029960048036038101906102949190610c9f565b610a5b565b6040516102a69190610d1b565b60405180910390f35b3360011515600460008373ffffffffffffffffffffffffffffffffffffffff1673ffffffffffffffffffffffffffffffffffffffff16815260200190815260200160002060009054906101000a900460ff16151514610343576040517f08c379a000000000000000000000000000000000000000000000000000000000815260040161033a90610d93565b60405180910390fd5b600061034e33610a73565b905080600360003373ffffffffffffffffffffffffffffffffffffffff1673ffffffffffffffffffffffffffffffffffffffff1681526020019081526020016000205461039b9190610de2565b600360003373ffffffffffffffffffffffffffffffffffffffff1673ffffffffffffffffffffffffffffffffffffffff168152602001908152602001600020819055503373ffffffffffffffffffffffffffffffffffffffff167f1f89f96333d3133000ee447473151fa9606543368f02271c9d95ae14f13bcc67826040516104249190610d1b565b60405180910390a25050565b3360011515600460008373ffffffffffffffffffffffffffffffffffffffff1673ffffffffffffffffffffffffffffffffffffffff16815260200190815260200160002060009054906101000a900460ff161515146104c4576040517f08c379a00000000000000000000000000000000000000000000000000000000081526004016104bb90610d93565b60405180910390fd5b6000600260003373ffffffffffffffffffffffffffffffffffffffff1673ffffffffffffffffffffffffffffffffffffffff16815260200190815260200160002054436105119190610e38565b90506000600182106105295761052633610a73565b90505b6000600560003373ffffffffffffffffffffffffffffffffffffffff1673ffffffffffffffffffffffffffffffffffffffff1681526020019081526020016000205490506000600560003373ffffffffffffffffffffffffffffffffffffffff1673ffffffffffffffffffffffffffffffffffffffff1681526020019081526020016000208190555043600260003373ffffffffffffffffffffffffffffffffffffffff1673ffffffffffffffffffffffffffffffffffffffff168152602001908152602001600020819055506000600460003373ffffffffffffffffffffffffffffffffffffffff1673ffffffffffffffffffffffffffffffffffffffff16815260200190815260200160002060006101000a81548160ff0219169083151502179055503373ffffffffffffffffffffffffffffffffffffffff166108fc829081150290604051600060405180830381858888f19350505050158015610694573d6000803e3d6000fd5b503373ffffffffffffffffffffffffffffffffffffffff167ff279e6a1f5e320cca91135676d9cb6e44ca8a08c0b88342bcdb1144f6511b56882846040516106dd929190610e6c565b60405180910390a250505050565b60008054906101000a900473ffffffffffffffffffffffffffffffffffffffff1681565b60046020528060005260406000206000915054906101000a900460ff1681565b7f000000000000000000000000000000000000000000000000000000000000000081565b60036020528060005260406000206000915090505481565b60026020528060005260406000206000915090505481565b60003360011515600460008373ffffffffffffffffffffffffffffffffffffffff1673ffffffffffffffffffffffffffffffffffffffff16815260200190815260200160002060009054906101000a900460ff16151514610819576040517f08c379a000000000000000000000000000000000000000000000000000000000815260040161081090610d93565b60405180910390fd5b6000600260003373ffffffffffffffffffffffffffffffffffffffff1673ffffffffffffffffffffffffffffffffffffffff16815260200190815260200160002054436108669190610e38565b905060007f0000000000000000000000000000000000000000000000000000000000000000826108969190610e95565b905080935050505090565b600160009054906101000a900473ffffffffffffffffffffffffffffffffffffffff1681565b67016345785d8a0000341015610912576040517f08c379a000000000000000000000000000000000000000000000000000000000815260040161090990610f61565b60405180910390fd5b43600260003373ffffffffffffffffffffffffffffffffffffffff1673ffffffffffffffffffffffffffffffffffffffff168152602001908152602001600020819055506001600460003373ffffffffffffffffffffffffffffffffffffffff1673ffffffffffffffffffffffffffffffffffffffff16815260200190815260200160002060006101000a81548160ff02191690831515021790555034600560003373ffffffffffffffffffffffffffffffffffffffff1673ffffffffffffffffffffffffffffffffffffffff168152602001908152602001600020819055503373ffffffffffffffffffffffffffffffffffffffff167ffc0c6882e809c82f8fa6c478ce54548224c18a9ad203f3693ce8f61ca82c55ad60405160405180910390a2565b7f000000000000000000000000000000000000000000000000000000000000000081565b60056020528060005260406000206000915090505481565b600080600260008473ffffffffffffffffffffffffffffffffffffffff1673ffffffffffffffffffffffffffffffffffffffff1681526020019081526020016000205443610ac19190610e38565b90506001811015610b07576040517f08c379a0000000000000000000000000000000000000000000000000000000008152600401610afe90610fcd565b60405180910390fd5b43600260008573ffffffffffffffffffffffffffffffffffffffff1673ffffffffffffffffffffffffffffffffffffffff1681526020019081526020016000208190555060007f000000000000000000000000000000000000000000000000000000000000000082610b799190610e95565b90507f000000000000000000000000000000000000000000000000000000000000000073ffffffffffffffffffffffffffffffffffffffff166340c10f1985836040518363ffffffff1660e01b8152600401610bd6929190610fed565b600060405180830381600087803b158015610bf057600080fd5b505af1158015610c04573d6000803e3d6000fd5b505050508092505050919050565b600073ffffffffffffffffffffffffffffffffffffffff82169050919050565b6000610c3d82610c12565b9050919050565b610c4d81610c32565b82525050565b6000602082019050610c686000830184610c44565b92915050565b600080fd5b610c7c81610c32565b8114610c8757600080fd5b50565b600081359050610c9981610c73565b92915050565b600060208284031215610cb557610cb4610c6e565b5b6000610cc384828501610c8a565b91505092915050565b60008115159050919050565b610ce181610ccc565b82525050565b6000602082019050610cfc6000830184610cd8565b92915050565b6000819050919050565b610d1581610d02565b82525050565b6000602082019050610d306000830184610d0c565b92915050565b600082825260208201905092915050565b7f6f6e6c79207061727469636970616e742063616e206163636573730000000000600082015250565b6000610d7d601b83610d36565b9150610d8882610d47565b602082019050919050565b60006020820190508181036000830152610dac81610d70565b9050919050565b7f4e487b7100000000000000000000000000000000000000000000000000000000600052601160045260246000fd5b6000610ded82610d02565b9150610df883610d02565b9250827fffffffffffffffffffffffffffffffffffffffffffffffffffffffffffffffff03821115610e2d57610e2c610db3565b5b828201905092915050565b6000610e4382610d02565b9150610e4e83610d02565b925082821015610e6157610e60610db3565b5b828203905092915050565b6000604082019050610e816000830185610d0c565b610e8e6020830184610d0c565b9392505050565b6000610ea082610d02565b9150610eab83610d02565b9250817fffffffffffffffffffffffffffffffffffffffffffffffffffffffffffffffff0483118215151615610ee457610ee3610db3565b5b828202905092915050565b7f70726f76696465642076616c7565206973206c657373207468616e20302e312060008201527f4554480000000000000000000000000000000000000000000000000000000000602082015250565b6000610f4b602383610d36565b9150610f5682610eef565b604082019050919050565b60006020820190508181036000830152610f7a81610f3e565b9050919050565b7f426c6f636b206861732079657420746f206265206d696e656400000000000000600082015250565b6000610fb7601983610d36565b9150610fc282610f81565b602082019050919050565b60006020820190508181036000830152610fe681610faa565b9050919050565b60006040820190506110026000830185610c44565b61100f6020830184610d0c565b939250505056fea264697066735822122020f7c5c2b9933a0962f34aa03073da0b5dcca6f361390dcd2124244df0efb55164736f6c634300080d0033",
  "immutableReferences": {
    "861": [
      {
        "length": 32,
        "start": 2617
      },
      {
        "length": 32,
        "start": 2941
      }
    ],
    "863": [
      {
        "length": 32,
        "start": 1841
      },
      {
        "length": 32,
        "start": 2156
      },
      {
        "length": 32,
        "start": 2895
      }
    ]
  },
  "source": "// SPDX-License-Identifier: MIT\r\npragma solidity >=0.8.0;\r\n\r\nimport \"./interfaces/IlpDeployer.sol\";\r\nimport \"./interfaces/IERC20LP.sol\";\r\n\r\ncontract LPFarm {\r\n    address public owner;\r\n    address public factory;\r\n    address public immutable token;\r\n    uint256 public immutable rewardProportion;\r\n\r\n    mapping(address => uint256) public startBlockNumber;\r\n    mapping(address => uint256) public claimedRewards;\r\n\r\n    mapping(address => bool) public isParticipant;\r\n    mapping(address => uint256) public deposits;\r\n\r\n    event ClaimRewards(address indexed to, uint256 amount);\r\n    event Withdraw(address indexed to, uint256 amount, uint256 tokenReward);\r\n    event Participated(address indexed);\r\n\r\n    modifier onlyParticipants(address sender) {\r\n        require(isParticipant[sender] == true, \"only participant can access\");\r\n        _;\r\n    }\r\n\r\n    constructor() {\r\n        (factory, owner, token, rewardProportion) = IlpDeployer(msg.sender)\r\n            .lpParameters();\r\n    }\r\n\r\n    // fee to participate is 0.1 ETH\r\n    function participate() public payable {\r\n        require(\r\n            msg.value >= (0.1 * 10**18),\r\n            \"provided value is less than 0.1 ETH\"\r\n        );\r\n\r\n        startBlockNumber[msg.sender] = block.number;\r\n        isParticipant[msg.sender] = true;\r\n        deposits[msg.sender] = msg.value;\r\n\r\n        emit Participated(msg.sender);\r\n    }\r\n\r\n    function claimRewards() public onlyParticipants(msg.sender) {\r\n        uint256 tokenReward = _claimRewards(msg.sender);\r\n\r\n        claimedRewards[msg.sender] = claimedRewards[msg.sender] + tokenReward;\r\n\r\n        emit ClaimRewards(msg.sender, tokenReward);\r\n    }\r\n\r\n    function withdraw() public onlyParticipants(msg.sender) {\r\n        // check if block has been mine since the last time\r\n        uint256 blockDiff = block.number - startBlockNumber[msg.sender];\r\n\r\n        uint256 tokenReward = 0;\r\n        if (blockDiff >= 1) {\r\n            tokenReward = _claimRewards(msg.sender);\r\n        }\r\n\r\n        uint256 _amt = deposits[msg.sender];\r\n        deposits[msg.sender] = 0;\r\n\r\n        startBlockNumber[msg.sender] = block.number;\r\n        isParticipant[msg.sender] = false;\r\n\r\n        payable(msg.sender).transfer(_amt);\r\n\r\n        emit Withdraw(msg.sender, _amt, tokenReward);\r\n    }\r\n\r\n    function checkpoint()\r\n        public\r\n        view\r\n        onlyParticipants(msg.sender)\r\n        returns (uint256)\r\n    {\r\n        uint256 blockDiff = block.number - startBlockNumber[msg.sender];\r\n\r\n        uint256 tokenReward = blockDiff * rewardProportion;\r\n\r\n        return tokenReward;\r\n    }\r\n\r\n    function _claimRewards(address claimer) internal returns (uint256) {\r\n        uint256 blockDiff = block.number - startBlockNumber[claimer];\r\n\r\n        require(blockDiff >= 1, \"Block has yet to be mined\");\r\n\r\n        startBlockNumber[claimer] = block.number;\r\n\r\n        uint256 tokenReward = blockDiff * rewardProportion;\r\n\r\n        // mint new token for user\r\n        IERC20LP(token).mint(claimer, tokenReward);\r\n\r\n        return (tokenReward);\r\n    }\r\n}\r\n",
  "sourcePath": "F:\\coding\\projects\\dapps\\lpfarming-truffle\\contracts\\LPFarm.sol",
  "compiler": {
    "name": "solc",
    "version": "0.8.13+commit.abaa5c0e.Emscripten.clang"
  },
  "schemaVersion": "3.4.7",
  "updatedAt": "2022-06-11T02:25:15.000Z",
  "networkType": "ethereum",
  "devdoc": {
    "kind": "dev",
    "methods": {},
    "version": 1
  },
  "userdoc": {
    "kind": "user",
    "methods": {},
    "version": 1
  }
}