{
  "contractName": "LPFactory",
  "abi": [
    {
      "inputs": [],
      "stateMutability": "nonpayable",
      "type": "constructor"
    },
    {
      "anonymous": false,
      "inputs": [
        {
          "indexed": true,
          "internalType": "address",
          "name": "owner",
          "type": "address"
        },
        {
          "indexed": false,
          "internalType": "address",
          "name": "lp",
          "type": "address"
        }
      ],
      "name": "LPCreated",
      "type": "event"
    },
    {
      "inputs": [],
      "name": "admin",
      "outputs": [
        {
          "internalType": "address",
          "name": "",
          "type": "address"
        }
      ],
      "stateMutability": "view",
      "type": "function",
      "constant": true
    },
    {
      "inputs": [
        {
          "internalType": "address",
          "name": "",
          "type": "address"
        }
      ],
      "name": "lpFarmOwner",
      "outputs": [
        {
          "internalType": "address",
          "name": "",
          "type": "address"
        }
      ],
      "stateMutability": "view",
      "type": "function",
      "constant": true
    },
    {
      "inputs": [
        {
          "internalType": "uint256",
          "name": "",
          "type": "uint256"
        }
      ],
      "name": "lpFarms",
      "outputs": [
        {
          "internalType": "address",
          "name": "",
          "type": "address"
        }
      ],
      "stateMutability": "view",
      "type": "function",
      "constant": true
    },
    {
      "inputs": [],
      "name": "lpParameters",
      "outputs": [
        {
          "internalType": "address",
          "name": "factory",
          "type": "address"
        },
        {
          "internalType": "address",
          "name": "owner",
          "type": "address"
        },
        {
          "internalType": "address",
          "name": "token",
          "type": "address"
        },
        {
          "internalType": "uint256",
          "name": "rewardProportion",
          "type": "uint256"
        }
      ],
      "stateMutability": "view",
      "type": "function",
      "constant": true
    },
    {
      "inputs": [
        {
          "internalType": "address",
          "name": "",
          "type": "address"
        },
        {
          "internalType": "uint256",
          "name": "",
          "type": "uint256"
        }
      ],
      "name": "tokenRewardFarm",
      "outputs": [
        {
          "internalType": "address",
          "name": "",
          "type": "address"
        }
      ],
      "stateMutability": "view",
      "type": "function",
      "constant": true
    },
    {
      "inputs": [
        {
          "internalType": "address",
          "name": "token",
          "type": "address"
        },
        {
          "internalType": "uint256",
          "name": "rewardProportion",
          "type": "uint256"
        }
      ],
      "name": "createLPFarm",
      "outputs": [
        {
          "internalType": "address",
          "name": "lp",
          "type": "address"
        }
      ],
      "stateMutability": "nonpayable",
      "type": "function"
    },
    {
      "inputs": [],
      "name": "getLPFarms",
      "outputs": [
        {
          "internalType": "address[]",
          "name": "",
          "type": "address[]"
        }
      ],
      "stateMutability": "view",
      "type": "function",
      "constant": true
    }
  ],
  "bytecode": "0x608060405234801561001057600080fd5b5033600460006101000a81548173ffffffffffffffffffffffffffffffffffffffff021916908373ffffffffffffffffffffffffffffffffffffffff160217905550612146806100616000396000f3fe60806040523480156200001157600080fd5b5060043610620000885760003560e01c8063988565f41162000063578063988565f4146200011b578063c9f835031462000151578063e8212cf31462000176578063f851a44014620001ac5762000088565b80633676bd90146200008d5780634a20c78f14620000c357806382f514f014620000f9575b600080fd5b620000ab6004803603810190620000a591906200097a565b620001ce565b604051620000ba9190620009f1565b60405180910390f35b620000e16004803603810190620000db919062000a3f565b6200020e565b604051620000f09190620009f1565b60405180910390f35b6200010362000250565b60405162000112919062000b54565b60405180910390f35b62000139600480360381019062000133919062000a3f565b62000369565b604051620001489190620009f1565b60405180910390f35b6200015b62000622565b6040516200016d949392919062000b89565b60405180910390f35b6200019460048036038101906200018e919062000bd6565b620006a0565b604051620001a39190620009f1565b60405180910390f35b620001b6620006d3565b604051620001c59190620009f1565b60405180910390f35b60058181548110620001df57600080fd5b906000526020600020016000915054906101000a900473ffffffffffffffffffffffffffffffffffffffff1681565b60076020528160005260406000206020528060005260406000206000915091509054906101000a900473ffffffffffffffffffffffffffffffffffffffff1681565b6060600060058054905067ffffffffffffffff81111562000276576200027562000c08565b5b604051908082528060200260200182016040528015620002a55781602001602082028036833780820191505090505b50905060005b600580549050811015620003615760058181548110620002d057620002cf62000c37565b5b9060005260206000200160009054906101000a900473ffffffffffffffffffffffffffffffffffffffff1682828151811062000311576200031062000c37565b5b602002602001019073ffffffffffffffffffffffffffffffffffffffff16908173ffffffffffffffffffffffffffffffffffffffff16815250508080620003589062000c95565b915050620002ab565b508091505090565b60008073ffffffffffffffffffffffffffffffffffffffff16600760008573ffffffffffffffffffffffffffffffffffffffff1673ffffffffffffffffffffffffffffffffffffffff168152602001908152602001600020600084815260200190815260200160002060009054906101000a900473ffffffffffffffffffffffffffffffffffffffff1673ffffffffffffffffffffffffffffffffffffffff16146200044c576040517f08c379a0000000000000000000000000000000000000000000000000000000008152600401620004439062000d43565b60405180910390fd5b6200045a30338585620006f9565b905080600660003373ffffffffffffffffffffffffffffffffffffffff1673ffffffffffffffffffffffffffffffffffffffff16815260200190815260200160002060006101000a81548173ffffffffffffffffffffffffffffffffffffffff021916908373ffffffffffffffffffffffffffffffffffffffff1602179055506005819080600181540180825580915050600190039060005260206000200160009091909190916101000a81548173ffffffffffffffffffffffffffffffffffffffff021916908373ffffffffffffffffffffffffffffffffffffffff16021790555080600760008573ffffffffffffffffffffffffffffffffffffffff1673ffffffffffffffffffffffffffffffffffffffff168152602001908152602001600020600084815260200190815260200160002060006101000a81548173ffffffffffffffffffffffffffffffffffffffff021916908373ffffffffffffffffffffffffffffffffffffffff1602179055503373ffffffffffffffffffffffffffffffffffffffff167f9c17294160d1ae9f8e0ffb201446af7ff7f74c645db3ca65d09b51b115cb3df082604051620006149190620009f1565b60405180910390a292915050565b60008060000160009054906101000a900473ffffffffffffffffffffffffffffffffffffffff16908060010160009054906101000a900473ffffffffffffffffffffffffffffffffffffffff16908060020160009054906101000a900473ffffffffffffffffffffffffffffffffffffffff16908060030154905084565b60066020528060005260406000206000915054906101000a900473ffffffffffffffffffffffffffffffffffffffff1681565b600460009054906101000a900473ffffffffffffffffffffffffffffffffffffffff1681565b600060405180608001604052808673ffffffffffffffffffffffffffffffffffffffff1681526020018573ffffffffffffffffffffffffffffffffffffffff1681526020018473ffffffffffffffffffffffffffffffffffffffff168152602001838152506000808201518160000160006101000a81548173ffffffffffffffffffffffffffffffffffffffff021916908373ffffffffffffffffffffffffffffffffffffffff16021790555060208201518160010160006101000a81548173ffffffffffffffffffffffffffffffffffffffff021916908373ffffffffffffffffffffffffffffffffffffffff16021790555060408201518160020160006101000a81548173ffffffffffffffffffffffffffffffffffffffff021916908373ffffffffffffffffffffffffffffffffffffffff16021790555060608201518160030155905050848484846040516020016200085a949392919062000b89565b604051602081830303815290604052805190602001206040516200087e906200092c565b8190604051809103906000f59050801580156200089f573d6000803e3d6000fd5b5090506000806000820160006101000a81549073ffffffffffffffffffffffffffffffffffffffff02191690556001820160006101000a81549073ffffffffffffffffffffffffffffffffffffffff02191690556002820160006101000a81549073ffffffffffffffffffffffffffffffffffffffff021916905560038201600090555050949350505050565b6113ab8062000d6683390190565b600080fd5b6000819050919050565b62000954816200093f565b81146200096057600080fd5b50565b600081359050620009748162000949565b92915050565b6000602082840312156200099357620009926200093a565b5b6000620009a38482850162000963565b91505092915050565b600073ffffffffffffffffffffffffffffffffffffffff82169050919050565b6000620009d982620009ac565b9050919050565b620009eb81620009cc565b82525050565b600060208201905062000a086000830184620009e0565b92915050565b62000a1981620009cc565b811462000a2557600080fd5b50565b60008135905062000a398162000a0e565b92915050565b6000806040838503121562000a595762000a586200093a565b5b600062000a698582860162000a28565b925050602062000a7c8582860162000963565b9150509250929050565b600081519050919050565b600082825260208201905092915050565b6000819050602082019050919050565b62000abd81620009cc565b82525050565b600062000ad1838362000ab2565b60208301905092915050565b6000602082019050919050565b600062000af78262000a86565b62000b03818562000a91565b935062000b108362000aa2565b8060005b8381101562000b4757815162000b2b888262000ac3565b975062000b388362000add565b92505060018101905062000b14565b5085935050505092915050565b6000602082019050818103600083015262000b70818462000aea565b905092915050565b62000b83816200093f565b82525050565b600060808201905062000ba06000830187620009e0565b62000baf6020830186620009e0565b62000bbe6040830185620009e0565b62000bcd606083018462000b78565b95945050505050565b60006020828403121562000bef5762000bee6200093a565b5b600062000bff8482850162000a28565b91505092915050565b7f4e487b7100000000000000000000000000000000000000000000000000000000600052604160045260246000fd5b7f4e487b7100000000000000000000000000000000000000000000000000000000600052603260045260246000fd5b7f4e487b7100000000000000000000000000000000000000000000000000000000600052601160045260246000fd5b600062000ca2826200093f565b91507fffffffffffffffffffffffffffffffffffffffffffffffffffffffffffffffff820362000cd75762000cd662000c66565b5b600182019050919050565b600082825260208201905092915050565b7f4c50206578697374000000000000000000000000000000000000000000000000600082015250565b600062000d2b60088362000ce2565b915062000d388262000cf3565b602082019050919050565b6000602082019050818103600083015262000d5e8162000d1c565b905091905056fe60c06040523480156200001157600080fd5b503373ffffffffffffffffffffffffffffffffffffffff1663c9f835036040518163ffffffff1660e01b8152600401608060405180830381865afa1580156200005e573d6000803e3d6000fd5b505050506040513d601f19601f82011682018060405250810190620000849190620001f2565b600160008060008460a0908152508573ffffffffffffffffffffffffffffffffffffffff1660809073ffffffffffffffffffffffffffffffffffffffff168152508691906101000a81548173ffffffffffffffffffffffffffffffffffffffff021916908373ffffffffffffffffffffffffffffffffffffffff1602179055508591906101000a81548173ffffffffffffffffffffffffffffffffffffffff021916908373ffffffffffffffffffffffffffffffffffffffff1602179055505050505062000264565b600080fd5b600073ffffffffffffffffffffffffffffffffffffffff82169050919050565b60006200017f8262000152565b9050919050565b620001918162000172565b81146200019d57600080fd5b50565b600081519050620001b18162000186565b92915050565b6000819050919050565b620001cc81620001b7565b8114620001d857600080fd5b50565b600081519050620001ec81620001c1565b92915050565b600080600080608085870312156200020f576200020e6200014d565b5b60006200021f87828801620001a0565b94505060206200023287828801620001a0565b93505060406200024587828801620001a0565b92505060606200025887828801620001db565b91505092959194509250565b60805160a05161110c6200029f600039600081816107cb015281816108be0152610c05015260008181610ada0152610c3d015261110c6000f3fe6080604052600436106100a75760003560e01c8063c2b3f47511610064578063c2b3f475146101aa578063c2c4c5c1146101e7578063c45a015514610212578063d11711a21461023d578063fc0c546a14610247578063fc7e286d14610272576100a7565b8063372500ab146100ac5780633ccfd60b146100c35780638da5cb5b146100da578063929066f514610105578063b883795714610142578063bd8343451461016d575b600080fd5b3480156100b857600080fd5b506100c16102af565b005b3480156100cf57600080fd5b506100d8610430565b005b3480156100e657600080fd5b506100ef610785565b6040516100fc9190610d13565b60405180910390f35b34801561011157600080fd5b5061012c60048036038101906101279190610d5f565b6107a9565b6040516101399190610da7565b60405180910390f35b34801561014e57600080fd5b506101576107c9565b6040516101649190610ddb565b60405180910390f35b34801561017957600080fd5b50610194600480360381019061018f9190610d5f565b6107ed565b6040516101a19190610ddb565b60405180910390f35b3480156101b657600080fd5b506101d160048036038101906101cc9190610d5f565b610805565b6040516101de9190610ddb565b60405180910390f35b3480156101f357600080fd5b506101fc61081d565b6040516102099190610ddb565b60405180910390f35b34801561021e57600080fd5b50610227610942565b6040516102349190610d13565b60405180910390f35b610245610968565b005b34801561025357600080fd5b5061025c610ad8565b6040516102699190610d13565b60405180910390f35b34801561027e57600080fd5b5061029960048036038101906102949190610d5f565b610afc565b6040516102a69190610ddb565b60405180910390f35b3360011515600460008373ffffffffffffffffffffffffffffffffffffffff1673ffffffffffffffffffffffffffffffffffffffff16815260200190815260200160002060009054906101000a900460ff16151514610343576040517f08c379a000000000000000000000000000000000000000000000000000000000815260040161033a90610e53565b60405180910390fd5b600061034e33610b14565b905080600360003373ffffffffffffffffffffffffffffffffffffffff1673ffffffffffffffffffffffffffffffffffffffff1681526020019081526020016000205461039b9190610ea2565b600360003373ffffffffffffffffffffffffffffffffffffffff1673ffffffffffffffffffffffffffffffffffffffff168152602001908152602001600020819055503373ffffffffffffffffffffffffffffffffffffffff167f1f89f96333d3133000ee447473151fa9606543368f02271c9d95ae14f13bcc67826040516104249190610ddb565b60405180910390a25050565b3360011515600460008373ffffffffffffffffffffffffffffffffffffffff1673ffffffffffffffffffffffffffffffffffffffff16815260200190815260200160002060009054906101000a900460ff161515146104c4576040517f08c379a00000000000000000000000000000000000000000000000000000000081526004016104bb90610e53565b60405180910390fd5b6000600260003373ffffffffffffffffffffffffffffffffffffffff1673ffffffffffffffffffffffffffffffffffffffff168152602001908152602001600020546001436105139190610ef8565b61051d9190610ef8565b90506000600182106105355761053233610b14565b90505b80600360003373ffffffffffffffffffffffffffffffffffffffff1673ffffffffffffffffffffffffffffffffffffffff168152602001908152602001600020546105809190610ea2565b600360003373ffffffffffffffffffffffffffffffffffffffff1673ffffffffffffffffffffffffffffffffffffffff168152602001908152602001600020819055506000600560003373ffffffffffffffffffffffffffffffffffffffff1673ffffffffffffffffffffffffffffffffffffffff1681526020019081526020016000205490506000600560003373ffffffffffffffffffffffffffffffffffffffff1673ffffffffffffffffffffffffffffffffffffffff1681526020019081526020016000208190555043600260003373ffffffffffffffffffffffffffffffffffffffff1673ffffffffffffffffffffffffffffffffffffffff168152602001908152602001600020819055506000600460003373ffffffffffffffffffffffffffffffffffffffff1673ffffffffffffffffffffffffffffffffffffffff16815260200190815260200160002060006101000a81548160ff0219169083151502179055503373ffffffffffffffffffffffffffffffffffffffff166108fc829081150290604051600060405180830381858888f1935050505015801561072e573d6000803e3d6000fd5b503373ffffffffffffffffffffffffffffffffffffffff167ff279e6a1f5e320cca91135676d9cb6e44ca8a08c0b88342bcdb1144f6511b5688284604051610777929190610f2c565b60405180910390a250505050565b60008054906101000a900473ffffffffffffffffffffffffffffffffffffffff1681565b60046020528060005260406000206000915054906101000a900460ff1681565b7f000000000000000000000000000000000000000000000000000000000000000081565b60036020528060005260406000206000915090505481565b60026020528060005260406000206000915090505481565b60003360011515600460008373ffffffffffffffffffffffffffffffffffffffff1673ffffffffffffffffffffffffffffffffffffffff16815260200190815260200160002060009054906101000a900460ff161515146108b3576040517f08c379a00000000000000000000000000000000000000000000000000000000081526004016108aa90610e53565b60405180910390fd5b670de0b6b3a76400007f00000000000000000000000000000000000000000000000000000000000000006108e79190610f55565b600260003373ffffffffffffffffffffffffffffffffffffffff1673ffffffffffffffffffffffffffffffffffffffff16815260200190815260200160002054436109329190610ef8565b61093c9190610f55565b91505090565b600160009054906101000a900473ffffffffffffffffffffffffffffffffffffffff1681565b67016345785d8a00003410156109b3576040517f08c379a00000000000000000000000000000000000000000000000000000000081526004016109aa90611021565b60405180910390fd5b43600260003373ffffffffffffffffffffffffffffffffffffffff1673ffffffffffffffffffffffffffffffffffffffff168152602001908152602001600020819055506001600460003373ffffffffffffffffffffffffffffffffffffffff1673ffffffffffffffffffffffffffffffffffffffff16815260200190815260200160002060006101000a81548160ff02191690831515021790555034600560003373ffffffffffffffffffffffffffffffffffffffff1673ffffffffffffffffffffffffffffffffffffffff168152602001908152602001600020819055503373ffffffffffffffffffffffffffffffffffffffff167ffc0c6882e809c82f8fa6c478ce54548224c18a9ad203f3693ce8f61ca82c55ad60405160405180910390a2565b7f000000000000000000000000000000000000000000000000000000000000000081565b60056020528060005260406000206000915090505481565b600080600260008473ffffffffffffffffffffffffffffffffffffffff1673ffffffffffffffffffffffffffffffffffffffff16815260200190815260200160002054600143610b649190610ef8565b610b6e9190610ef8565b90506001811015610bb4576040517f08c379a0000000000000000000000000000000000000000000000000000000008152600401610bab9061108d565b60405180910390fd5b43600260008573ffffffffffffffffffffffffffffffffffffffff1673ffffffffffffffffffffffffffffffffffffffff168152602001908152602001600020819055506000670de0b6b3a76400007f0000000000000000000000000000000000000000000000000000000000000000610c2e9190610f55565b82610c399190610f55565b90507f000000000000000000000000000000000000000000000000000000000000000073ffffffffffffffffffffffffffffffffffffffff166340c10f1985836040518363ffffffff1660e01b8152600401610c969291906110ad565b600060405180830381600087803b158015610cb057600080fd5b505af1158015610cc4573d6000803e3d6000fd5b505050508092505050919050565b600073ffffffffffffffffffffffffffffffffffffffff82169050919050565b6000610cfd82610cd2565b9050919050565b610d0d81610cf2565b82525050565b6000602082019050610d286000830184610d04565b92915050565b600080fd5b610d3c81610cf2565b8114610d4757600080fd5b50565b600081359050610d5981610d33565b92915050565b600060208284031215610d7557610d74610d2e565b5b6000610d8384828501610d4a565b91505092915050565b60008115159050919050565b610da181610d8c565b82525050565b6000602082019050610dbc6000830184610d98565b92915050565b6000819050919050565b610dd581610dc2565b82525050565b6000602082019050610df06000830184610dcc565b92915050565b600082825260208201905092915050565b7f6f6e6c79207061727469636970616e742063616e206163636573730000000000600082015250565b6000610e3d601b83610df6565b9150610e4882610e07565b602082019050919050565b60006020820190508181036000830152610e6c81610e30565b9050919050565b7f4e487b7100000000000000000000000000000000000000000000000000000000600052601160045260246000fd5b6000610ead82610dc2565b9150610eb883610dc2565b9250827fffffffffffffffffffffffffffffffffffffffffffffffffffffffffffffffff03821115610eed57610eec610e73565b5b828201905092915050565b6000610f0382610dc2565b9150610f0e83610dc2565b925082821015610f2157610f20610e73565b5b828203905092915050565b6000604082019050610f416000830185610dcc565b610f4e6020830184610dcc565b9392505050565b6000610f6082610dc2565b9150610f6b83610dc2565b9250817fffffffffffffffffffffffffffffffffffffffffffffffffffffffffffffffff0483118215151615610fa457610fa3610e73565b5b828202905092915050565b7f70726f76696465642076616c7565206973206c657373207468616e20302e312060008201527f4554480000000000000000000000000000000000000000000000000000000000602082015250565b600061100b602383610df6565b915061101682610faf565b604082019050919050565b6000602082019050818103600083015261103a81610ffe565b9050919050565b7f426c6f636b206861732079657420746f206265206d696e656400000000000000600082015250565b6000611077601983610df6565b915061108282611041565b602082019050919050565b600060208201905081810360008301526110a68161106a565b9050919050565b60006040820190506110c26000830185610d04565b6110cf6020830184610dcc565b939250505056fea26469706673582212202bcc6c0bf5212b8404387ed3e3d36f5781fa308173d2205c3b45ac09293bec6c64736f6c634300080d0033a26469706673582212202a5b55f6e809f549d8a89850d871e7dbf7d1b854d5e0f994493b6576471d5e1564736f6c634300080d0033",
  "immutableReferences": {},
  "source": "// SPDX-License-Identifier: MIT\r\npragma solidity >=0.8.0;\r\n\r\nimport \"./LPDeployer.sol\";\r\n\r\ncontract LPFactory is LPDeployer {\r\n    address public admin;\r\n    address[] public lpFarms;\r\n    mapping(address => address) public lpFarmOwner;\r\n    mapping(address => mapping(uint256 => address)) public tokenRewardFarm;\r\n\r\n    event LPCreated(address indexed owner, address lp);\r\n\r\n    constructor() {\r\n        admin = msg.sender;\r\n    }\r\n\r\n    function createLPFarm(address token, uint256 rewardProportion)\r\n        public\r\n        returns (address lp)\r\n    {\r\n        require(\r\n            tokenRewardFarm[token][rewardProportion] == address(0),\r\n            \"LP exist\"\r\n        );\r\n\r\n        lp = deployLPFarm(address(this), msg.sender, token, rewardProportion);\r\n\r\n        lpFarmOwner[msg.sender] = lp;\r\n        lpFarms.push(lp);\r\n        tokenRewardFarm[token][rewardProportion] = lp;\r\n\r\n        emit LPCreated(msg.sender, lp);\r\n    }\r\n\r\n    function getLPFarms()\r\n        public\r\n        view\r\n        returns (address[] memory)\r\n    {\r\n        address[] memory addressList = new address[](\r\n            lpFarms.length\r\n        );\r\n\r\n        for (uint256 i = 0; i < lpFarms.length; i++) {\r\n            addressList[i] = address(lpFarms[i]);\r\n        }\r\n\r\n        return addressList;\r\n    }\r\n}\r\n",
  "sourcePath": "F:\\coding\\projects\\dapps\\lpfarming-truffle\\contracts\\LPFactory.sol",
  "compiler": {
    "name": "solc",
    "version": "0.8.13+commit.abaa5c0e.Emscripten.clang"
  },
  "schemaVersion": "3.4.7",
  "updatedAt": "2022-06-14T11:43:13.346Z",
  "networkType": "ethereum",
  "devdoc": {
    "kind": "dev",
    "methods": {},
    "version": 1
  },
  "userdoc": {
    "kind": "user",
    "methods": {},
    "version": 1
  }
}