{
  "contractName": "RewardToken",
  "abi": [
    {
      "inputs": [],
      "stateMutability": "nonpayable",
      "type": "constructor"
    },
    {
      "anonymous": false,
      "inputs": [
        {
          "indexed": true,
          "internalType": "address",
          "name": "owner",
          "type": "address"
        },
        {
          "indexed": true,
          "internalType": "address",
          "name": "spender",
          "type": "address"
        },
        {
          "indexed": false,
          "internalType": "uint256",
          "name": "value",
          "type": "uint256"
        }
      ],
      "name": "Approval",
      "type": "event"
    },
    {
      "anonymous": false,
      "inputs": [
        {
          "indexed": true,
          "internalType": "address",
          "name": "from",
          "type": "address"
        },
        {
          "indexed": true,
          "internalType": "address",
          "name": "to",
          "type": "address"
        },
        {
          "indexed": false,
          "internalType": "uint256",
          "name": "value",
          "type": "uint256"
        }
      ],
      "name": "Transfer",
      "type": "event"
    },
    {
      "inputs": [],
      "name": "_totalSupply",
      "outputs": [
        {
          "internalType": "uint256",
          "name": "",
          "type": "uint256"
        }
      ],
      "stateMutability": "view",
      "type": "function",
      "constant": true
    },
    {
      "inputs": [
        {
          "internalType": "address",
          "name": "owner",
          "type": "address"
        },
        {
          "internalType": "address",
          "name": "spender",
          "type": "address"
        }
      ],
      "name": "allowance",
      "outputs": [
        {
          "internalType": "uint256",
          "name": "",
          "type": "uint256"
        }
      ],
      "stateMutability": "view",
      "type": "function",
      "constant": true
    },
    {
      "inputs": [
        {
          "internalType": "address",
          "name": "spender",
          "type": "address"
        },
        {
          "internalType": "uint256",
          "name": "amount",
          "type": "uint256"
        }
      ],
      "name": "approve",
      "outputs": [
        {
          "internalType": "bool",
          "name": "",
          "type": "bool"
        }
      ],
      "stateMutability": "nonpayable",
      "type": "function"
    },
    {
      "inputs": [
        {
          "internalType": "address",
          "name": "account",
          "type": "address"
        }
      ],
      "name": "balanceOf",
      "outputs": [
        {
          "internalType": "uint256",
          "name": "",
          "type": "uint256"
        }
      ],
      "stateMutability": "view",
      "type": "function",
      "constant": true
    },
    {
      "inputs": [],
      "name": "decimals",
      "outputs": [
        {
          "internalType": "uint8",
          "name": "",
          "type": "uint8"
        }
      ],
      "stateMutability": "view",
      "type": "function",
      "constant": true
    },
    {
      "inputs": [
        {
          "internalType": "address",
          "name": "spender",
          "type": "address"
        },
        {
          "internalType": "uint256",
          "name": "subtractedValue",
          "type": "uint256"
        }
      ],
      "name": "decreaseAllowance",
      "outputs": [
        {
          "internalType": "bool",
          "name": "",
          "type": "bool"
        }
      ],
      "stateMutability": "nonpayable",
      "type": "function"
    },
    {
      "inputs": [
        {
          "internalType": "address",
          "name": "spender",
          "type": "address"
        },
        {
          "internalType": "uint256",
          "name": "addedValue",
          "type": "uint256"
        }
      ],
      "name": "increaseAllowance",
      "outputs": [
        {
          "internalType": "bool",
          "name": "",
          "type": "bool"
        }
      ],
      "stateMutability": "nonpayable",
      "type": "function"
    },
    {
      "inputs": [],
      "name": "name",
      "outputs": [
        {
          "internalType": "string",
          "name": "",
          "type": "string"
        }
      ],
      "stateMutability": "view",
      "type": "function",
      "constant": true
    },
    {
      "inputs": [],
      "name": "symbol",
      "outputs": [
        {
          "internalType": "string",
          "name": "",
          "type": "string"
        }
      ],
      "stateMutability": "view",
      "type": "function",
      "constant": true
    },
    {
      "inputs": [],
      "name": "totalSupply",
      "outputs": [
        {
          "internalType": "uint256",
          "name": "",
          "type": "uint256"
        }
      ],
      "stateMutability": "view",
      "type": "function",
      "constant": true
    },
    {
      "inputs": [
        {
          "internalType": "address",
          "name": "to",
          "type": "address"
        },
        {
          "internalType": "uint256",
          "name": "amount",
          "type": "uint256"
        }
      ],
      "name": "transfer",
      "outputs": [
        {
          "internalType": "bool",
          "name": "",
          "type": "bool"
        }
      ],
      "stateMutability": "nonpayable",
      "type": "function"
    },
    {
      "inputs": [
        {
          "internalType": "address",
          "name": "from",
          "type": "address"
        },
        {
          "internalType": "address",
          "name": "to",
          "type": "address"
        },
        {
          "internalType": "uint256",
          "name": "amount",
          "type": "uint256"
        }
      ],
      "name": "transferFrom",
      "outputs": [
        {
          "internalType": "bool",
          "name": "",
          "type": "bool"
        }
      ],
      "stateMutability": "nonpayable",
      "type": "function"
    },
    {
      "inputs": [
        {
          "internalType": "address",
          "name": "to",
          "type": "address"
        },
        {
          "internalType": "uint256",
          "name": "amount",
          "type": "uint256"
        }
      ],
      "name": "mint",
      "outputs": [],
      "stateMutability": "nonpayable",
      "type": "function"
    }
  ],
  "bytecode": "0x60806040523480156200001157600080fd5b506040518060400160405280600b81526020017f526577617264546f6b656e0000000000000000000000000000000000000000008152506040518060400160405280600381526020017f52544b0000000000000000000000000000000000000000000000000000000000815250816003908051906020019062000096929190620002bc565b508060049080519060200190620000af929190620002bc565b505050620000f433620000c76200013160201b60201c565b60ff16600a620000d89190620004f9565b620186a0620000e891906200054a565b6200013a60201b60201c565b620001046200013160201b60201c565b60ff16600a620001159190620004f9565b620f42406200012591906200054a565b6005819055506200071d565b60006012905090565b600073ffffffffffffffffffffffffffffffffffffffff168273ffffffffffffffffffffffffffffffffffffffff1603620001ac576040517f08c379a0000000000000000000000000000000000000000000000000000000008152600401620001a3906200060c565b60405180910390fd5b620001c060008383620002b260201b60201c565b8060026000828254620001d491906200062e565b92505081905550806000808473ffffffffffffffffffffffffffffffffffffffff1673ffffffffffffffffffffffffffffffffffffffff16815260200190815260200160002060008282546200022b91906200062e565b925050819055508173ffffffffffffffffffffffffffffffffffffffff16600073ffffffffffffffffffffffffffffffffffffffff167fddf252ad1be2c89b69c2b068fc378daa952ba7f163c4a11628f55a4df523b3ef836040516200029291906200069c565b60405180910390a3620002ae60008383620002b760201b60201c565b5050565b505050565b505050565b828054620002ca90620006e8565b90600052602060002090601f016020900481019282620002ee57600085556200033a565b82601f106200030957805160ff19168380011785556200033a565b828001600101855582156200033a579182015b82811115620003395782518255916020019190600101906200031c565b5b5090506200034991906200034d565b5090565b5b80821115620003685760008160009055506001016200034e565b5090565b7f4e487b7100000000000000000000000000000000000000000000000000000000600052601160045260246000fd5b60008160011c9050919050565b6000808291508390505b6001851115620003fa57808604811115620003d257620003d16200036c565b5b6001851615620003e25780820291505b8081029050620003f2856200039b565b9450620003b2565b94509492505050565b600082620004155760019050620004e8565b81620004255760009050620004e8565b81600181146200043e576002811462000449576200047f565b6001915050620004e8565b60ff8411156200045e576200045d6200036c565b5b8360020a9150848211156200047857620004776200036c565b5b50620004e8565b5060208310610133831016604e8410600b8410161715620004b95782820a905083811115620004b357620004b26200036c565b5b620004e8565b620004c88484846001620003a8565b92509050818404811115620004e257620004e16200036c565b5b81810290505b9392505050565b6000819050919050565b60006200050682620004ef565b91506200051383620004ef565b9250620005427fffffffffffffffffffffffffffffffffffffffffffffffffffffffffffffffff848462000403565b905092915050565b60006200055782620004ef565b91506200056483620004ef565b9250817fffffffffffffffffffffffffffffffffffffffffffffffffffffffffffffffff0483118215151615620005a0576200059f6200036c565b5b828202905092915050565b600082825260208201905092915050565b7f45524332303a206d696e7420746f20746865207a65726f206164647265737300600082015250565b6000620005f4601f83620005ab565b91506200060182620005bc565b602082019050919050565b600060208201905081810360008301526200062781620005e5565b9050919050565b60006200063b82620004ef565b91506200064883620004ef565b9250827fffffffffffffffffffffffffffffffffffffffffffffffffffffffffffffffff0382111562000680576200067f6200036c565b5b828201905092915050565b6200069681620004ef565b82525050565b6000602082019050620006b360008301846200068b565b92915050565b7f4e487b7100000000000000000000000000000000000000000000000000000000600052602260045260246000fd5b600060028204905060018216806200070157607f821691505b602082108103620007175762000716620006b9565b5b50919050565b6114a2806200072d6000396000f3fe608060405234801561001057600080fd5b50600436106100cf5760003560e01c80633eaaf86b1161008c57806395d89b411161006657806395d89b4114610228578063a457c2d714610246578063a9059cbb14610276578063dd62ed3e146102a6576100cf565b80633eaaf86b146101be57806340c10f19146101dc57806370a08231146101f8576100cf565b806306fdde03146100d4578063095ea7b3146100f257806318160ddd1461012257806323b872dd14610140578063313ce56714610170578063395093511461018e575b600080fd5b6100dc6102d6565b6040516100e99190610cf1565b60405180910390f35b61010c60048036038101906101079190610dac565b610368565b6040516101199190610e07565b60405180910390f35b61012a61038b565b6040516101379190610e31565b60405180910390f35b61015a60048036038101906101559190610e4c565b610395565b6040516101679190610e07565b60405180910390f35b6101786103c4565b6040516101859190610ebb565b60405180910390f35b6101a860048036038101906101a39190610dac565b6103cd565b6040516101b59190610e07565b60405180910390f35b6101c6610404565b6040516101d39190610e31565b60405180910390f35b6101f660048036038101906101f19190610dac565b61040a565b005b610212600480360381019061020d9190610ed6565b610418565b60405161021f9190610e31565b60405180910390f35b610230610460565b60405161023d9190610cf1565b60405180910390f35b610260600480360381019061025b9190610dac565b6104f2565b60405161026d9190610e07565b60405180910390f35b610290600480360381019061028b9190610dac565b610569565b60405161029d9190610e07565b60405180910390f35b6102c060048036038101906102bb9190610f03565b61058c565b6040516102cd9190610e31565b60405180910390f35b6060600380546102e590610f72565b80601f016020809104026020016040519081016040528092919081815260200182805461031190610f72565b801561035e5780601f106103335761010080835404028352916020019161035e565b820191906000526020600020905b81548152906001019060200180831161034157829003601f168201915b5050505050905090565b600080610373610613565b905061038081858561061b565b600191505092915050565b6000600254905090565b6000806103a0610613565b90506103ad8582856107e4565b6103b8858585610870565b60019150509392505050565b60006012905090565b6000806103d8610613565b90506103f98185856103ea858961058c565b6103f49190610fd2565b61061b565b600191505092915050565b60055481565b6104148282610aef565b5050565b60008060008373ffffffffffffffffffffffffffffffffffffffff1673ffffffffffffffffffffffffffffffffffffffff168152602001908152602001600020549050919050565b60606004805461046f90610f72565b80601f016020809104026020016040519081016040528092919081815260200182805461049b90610f72565b80156104e85780601f106104bd576101008083540402835291602001916104e8565b820191906000526020600020905b8154815290600101906020018083116104cb57829003601f168201915b5050505050905090565b6000806104fd610613565b9050600061050b828661058c565b905083811015610550576040517f08c379a00000000000000000000000000000000000000000000000000000000081526004016105479061109a565b60405180910390fd5b61055d828686840361061b565b60019250505092915050565b600080610574610613565b9050610581818585610870565b600191505092915050565b6000600160008473ffffffffffffffffffffffffffffffffffffffff1673ffffffffffffffffffffffffffffffffffffffff16815260200190815260200160002060008373ffffffffffffffffffffffffffffffffffffffff1673ffffffffffffffffffffffffffffffffffffffff16815260200190815260200160002054905092915050565b600033905090565b600073ffffffffffffffffffffffffffffffffffffffff168373ffffffffffffffffffffffffffffffffffffffff160361068a576040517f08c379a00000000000000000000000000000000000000000000000000000000081526004016106819061112c565b60405180910390fd5b600073ffffffffffffffffffffffffffffffffffffffff168273ffffffffffffffffffffffffffffffffffffffff16036106f9576040517f08c379a00000000000000000000000000000000000000000000000000000000081526004016106f0906111be565b60405180910390fd5b80600160008573ffffffffffffffffffffffffffffffffffffffff1673ffffffffffffffffffffffffffffffffffffffff16815260200190815260200160002060008473ffffffffffffffffffffffffffffffffffffffff1673ffffffffffffffffffffffffffffffffffffffff168152602001908152602001600020819055508173ffffffffffffffffffffffffffffffffffffffff168373ffffffffffffffffffffffffffffffffffffffff167f8c5be1e5ebec7d5bd14f71427d1e84f3dd0314c0f7b2291e5b200ac8c7c3b925836040516107d79190610e31565b60405180910390a3505050565b60006107f0848461058c565b90507fffffffffffffffffffffffffffffffffffffffffffffffffffffffffffffffff811461086a578181101561085c576040517f08c379a00000000000000000000000000000000000000000000000000000000081526004016108539061122a565b60405180910390fd5b610869848484840361061b565b5b50505050565b600073ffffffffffffffffffffffffffffffffffffffff168373ffffffffffffffffffffffffffffffffffffffff16036108df576040517f08c379a00000000000000000000000000000000000000000000000000000000081526004016108d6906112bc565b60405180910390fd5b600073ffffffffffffffffffffffffffffffffffffffff168273ffffffffffffffffffffffffffffffffffffffff160361094e576040517f08c379a00000000000000000000000000000000000000000000000000000000081526004016109459061134e565b60405180910390fd5b610959838383610c4e565b60008060008573ffffffffffffffffffffffffffffffffffffffff1673ffffffffffffffffffffffffffffffffffffffff168152602001908152602001600020549050818110156109df576040517f08c379a00000000000000000000000000000000000000000000000000000000081526004016109d6906113e0565b60405180910390fd5b8181036000808673ffffffffffffffffffffffffffffffffffffffff1673ffffffffffffffffffffffffffffffffffffffff16815260200190815260200160002081905550816000808573ffffffffffffffffffffffffffffffffffffffff1673ffffffffffffffffffffffffffffffffffffffff1681526020019081526020016000206000828254610a729190610fd2565b925050819055508273ffffffffffffffffffffffffffffffffffffffff168473ffffffffffffffffffffffffffffffffffffffff167fddf252ad1be2c89b69c2b068fc378daa952ba7f163c4a11628f55a4df523b3ef84604051610ad69190610e31565b60405180910390a3610ae9848484610c53565b50505050565b600073ffffffffffffffffffffffffffffffffffffffff168273ffffffffffffffffffffffffffffffffffffffff1603610b5e576040517f08c379a0000000000000000000000000000000000000000000000000000000008152600401610b559061144c565b60405180910390fd5b610b6a60008383610c4e565b8060026000828254610b7c9190610fd2565b92505081905550806000808473ffffffffffffffffffffffffffffffffffffffff1673ffffffffffffffffffffffffffffffffffffffff1681526020019081526020016000206000828254610bd19190610fd2565b925050819055508173ffffffffffffffffffffffffffffffffffffffff16600073ffffffffffffffffffffffffffffffffffffffff167fddf252ad1be2c89b69c2b068fc378daa952ba7f163c4a11628f55a4df523b3ef83604051610c369190610e31565b60405180910390a3610c4a60008383610c53565b5050565b505050565b505050565b600081519050919050565b600082825260208201905092915050565b60005b83811015610c92578082015181840152602081019050610c77565b83811115610ca1576000848401525b50505050565b6000601f19601f8301169050919050565b6000610cc382610c58565b610ccd8185610c63565b9350610cdd818560208601610c74565b610ce681610ca7565b840191505092915050565b60006020820190508181036000830152610d0b8184610cb8565b905092915050565b600080fd5b600073ffffffffffffffffffffffffffffffffffffffff82169050919050565b6000610d4382610d18565b9050919050565b610d5381610d38565b8114610d5e57600080fd5b50565b600081359050610d7081610d4a565b92915050565b6000819050919050565b610d8981610d76565b8114610d9457600080fd5b50565b600081359050610da681610d80565b92915050565b60008060408385031215610dc357610dc2610d13565b5b6000610dd185828601610d61565b9250506020610de285828601610d97565b9150509250929050565b60008115159050919050565b610e0181610dec565b82525050565b6000602082019050610e1c6000830184610df8565b92915050565b610e2b81610d76565b82525050565b6000602082019050610e466000830184610e22565b92915050565b600080600060608486031215610e6557610e64610d13565b5b6000610e7386828701610d61565b9350506020610e8486828701610d61565b9250506040610e9586828701610d97565b9150509250925092565b600060ff82169050919050565b610eb581610e9f565b82525050565b6000602082019050610ed06000830184610eac565b92915050565b600060208284031215610eec57610eeb610d13565b5b6000610efa84828501610d61565b91505092915050565b60008060408385031215610f1a57610f19610d13565b5b6000610f2885828601610d61565b9250506020610f3985828601610d61565b9150509250929050565b7f4e487b7100000000000000000000000000000000000000000000000000000000600052602260045260246000fd5b60006002820490506001821680610f8a57607f821691505b602082108103610f9d57610f9c610f43565b5b50919050565b7f4e487b7100000000000000000000000000000000000000000000000000000000600052601160045260246000fd5b6000610fdd82610d76565b9150610fe883610d76565b9250827fffffffffffffffffffffffffffffffffffffffffffffffffffffffffffffffff0382111561101d5761101c610fa3565b5b828201905092915050565b7f45524332303a2064656372656173656420616c6c6f77616e63652062656c6f7760008201527f207a65726f000000000000000000000000000000000000000000000000000000602082015250565b6000611084602583610c63565b915061108f82611028565b604082019050919050565b600060208201905081810360008301526110b381611077565b9050919050565b7f45524332303a20617070726f76652066726f6d20746865207a65726f2061646460008201527f7265737300000000000000000000000000000000000000000000000000000000602082015250565b6000611116602483610c63565b9150611121826110ba565b604082019050919050565b6000602082019050818103600083015261114581611109565b9050919050565b7f45524332303a20617070726f766520746f20746865207a65726f20616464726560008201527f7373000000000000000000000000000000000000000000000000000000000000602082015250565b60006111a8602283610c63565b91506111b38261114c565b604082019050919050565b600060208201905081810360008301526111d78161119b565b9050919050565b7f45524332303a20696e73756666696369656e7420616c6c6f77616e6365000000600082015250565b6000611214601d83610c63565b915061121f826111de565b602082019050919050565b6000602082019050818103600083015261124381611207565b9050919050565b7f45524332303a207472616e736665722066726f6d20746865207a65726f20616460008201527f6472657373000000000000000000000000000000000000000000000000000000602082015250565b60006112a6602583610c63565b91506112b18261124a565b604082019050919050565b600060208201905081810360008301526112d581611299565b9050919050565b7f45524332303a207472616e7366657220746f20746865207a65726f206164647260008201527f6573730000000000000000000000000000000000000000000000000000000000602082015250565b6000611338602383610c63565b9150611343826112dc565b604082019050919050565b600060208201905081810360008301526113678161132b565b9050919050565b7f45524332303a207472616e7366657220616d6f756e742065786365656473206260008201527f616c616e63650000000000000000000000000000000000000000000000000000602082015250565b60006113ca602683610c63565b91506113d58261136e565b604082019050919050565b600060208201905081810360008301526113f9816113bd565b9050919050565b7f45524332303a206d696e7420746f20746865207a65726f206164647265737300600082015250565b6000611436601f83610c63565b915061144182611400565b602082019050919050565b6000602082019050818103600083015261146581611429565b905091905056fea2646970667358221220da044a3b2ea70a8c2b52863b432e428ca7e879f7f18f7741e64f0e003a98f6b964736f6c634300080d0033",
  "immutableReferences": {},
  "source": "// SPDX-License-Identifier: GPL-2.0-or-later\r\npragma solidity >=0.8.0;\r\n\r\nimport \"@openzeppelin/contracts/token/ERC20/ERC20.sol\";\r\nimport \"../interfaces/IERC20LP.sol\";\r\n\r\ncontract RewardToken is ERC20, IERC20LP {\r\n    uint256 public _totalSupply;\r\n\r\n    constructor() ERC20(\"RewardToken\", \"RTK\") {\r\n        _mint(msg.sender, 100000 * (10**uint256(decimals())));\r\n        _totalSupply = 1000000 * (10**uint256(decimals()));\r\n    }\r\n\r\n    function mint(address to, uint256 amount) public override {\r\n        _mint(to, amount);\r\n    }\r\n}\r\n",
  "sourcePath": "F:\\coding\\projects\\dapps\\lpfarming-truffle\\contracts\\tokens\\rewardToken.sol",
  "compiler": {
    "name": "solc",
    "version": "0.8.13+commit.abaa5c0e.Emscripten.clang"
  },
  "schemaVersion": "3.4.7",
  "updatedAt": "2022-06-14T14:51:12.216Z",
  "networkType": "ethereum",
  "devdoc": {
    "kind": "dev",
    "methods": {
      "allowance(address,address)": {
        "details": "See {IERC20-allowance}."
      },
      "approve(address,uint256)": {
        "details": "See {IERC20-approve}. NOTE: If `amount` is the maximum `uint256`, the allowance is not updated on `transferFrom`. This is semantically equivalent to an infinite approval. Requirements: - `spender` cannot be the zero address."
      },
      "balanceOf(address)": {
        "details": "See {IERC20-balanceOf}."
      },
      "decimals()": {
        "details": "Returns the number of decimals used to get its user representation. For example, if `decimals` equals `2`, a balance of `505` tokens should be displayed to a user as `5.05` (`505 / 10 ** 2`). Tokens usually opt for a value of 18, imitating the relationship between Ether and Wei. This is the value {ERC20} uses, unless this function is overridden; NOTE: This information is only used for _display_ purposes: it in no way affects any of the arithmetic of the contract, including {IERC20-balanceOf} and {IERC20-transfer}."
      },
      "decreaseAllowance(address,uint256)": {
        "details": "Atomically decreases the allowance granted to `spender` by the caller. This is an alternative to {approve} that can be used as a mitigation for problems described in {IERC20-approve}. Emits an {Approval} event indicating the updated allowance. Requirements: - `spender` cannot be the zero address. - `spender` must have allowance for the caller of at least `subtractedValue`."
      },
      "increaseAllowance(address,uint256)": {
        "details": "Atomically increases the allowance granted to `spender` by the caller. This is an alternative to {approve} that can be used as a mitigation for problems described in {IERC20-approve}. Emits an {Approval} event indicating the updated allowance. Requirements: - `spender` cannot be the zero address."
      },
      "name()": {
        "details": "Returns the name of the token."
      },
      "symbol()": {
        "details": "Returns the symbol of the token, usually a shorter version of the name."
      },
      "totalSupply()": {
        "details": "See {IERC20-totalSupply}."
      },
      "transfer(address,uint256)": {
        "details": "See {IERC20-transfer}. Requirements: - `to` cannot be the zero address. - the caller must have a balance of at least `amount`."
      },
      "transferFrom(address,address,uint256)": {
        "details": "See {IERC20-transferFrom}. Emits an {Approval} event indicating the updated allowance. This is not required by the EIP. See the note at the beginning of {ERC20}. NOTE: Does not update the allowance if the current allowance is the maximum `uint256`. Requirements: - `from` and `to` cannot be the zero address. - `from` must have a balance of at least `amount`. - the caller must have allowance for ``from``'s tokens of at least `amount`."
      }
    },
    "version": 1
  },
  "userdoc": {
    "kind": "user",
    "methods": {},
    "version": 1
  }
}